{
  "_format": "hh-sol-artifact-1",
  "contractName": "Voting",
  "sourceName": "contracts/Voting.sol",
  "abi": [
    {
      "inputs": [
        {
          "internalType": "address",
          "name": "_voterRegistry",
          "type": "address"
        },
        {
          "internalType": "address",
          "name": "_electionManager",
          "type": "address"
        },
        {
          "internalType": "address",
          "name": "_candidateManager",
          "type": "address"
        }
      ],
      "stateMutability": "nonpayable",
      "type": "constructor"
    },
    {
      "anonymous": false,
      "inputs": [
        {
          "indexed": true,
          "internalType": "address",
          "name": "voter",
          "type": "address"
        },
        {
          "indexed": false,
          "internalType": "uint256",
          "name": "electionId",
          "type": "uint256"
        },
        {
          "indexed": false,
          "internalType": "uint256",
          "name": "candidateId",
          "type": "uint256"
        },
        {
          "indexed": false,
          "internalType": "uint256",
          "name": "timestamp",
          "type": "uint256"
        }
      ],
      "name": "VoteCast",
      "type": "event"
    },
    {
      "inputs": [],
      "name": "candidateManager",
      "outputs": [
        {
          "internalType": "contract CandidateManager",
          "name": "",
          "type": "address"
        }
      ],
      "stateMutability": "view",
      "type": "function"
    },
    {
      "inputs": [
        {
          "internalType": "uint256",
          "name": "",
          "type": "uint256"
        },
        {
          "internalType": "uint256",
          "name": "",
          "type": "uint256"
        }
      ],
      "name": "candidateVotes",
      "outputs": [
        {
          "internalType": "uint256",
          "name": "",
          "type": "uint256"
        }
      ],
      "stateMutability": "view",
      "type": "function"
    },
    {
      "inputs": [
        {
          "internalType": "uint256",
          "name": "_electionId",
          "type": "uint256"
        },
        {
          "internalType": "uint256",
          "name": "_candidateId",
          "type": "uint256"
        }
      ],
      "name": "castVote",
      "outputs": [],
      "stateMutability": "nonpayable",
      "type": "function"
    },
    {
      "inputs": [],
      "name": "electionManager",
      "outputs": [
        {
          "internalType": "contract ElectionManager",
          "name": "",
          "type": "address"
        }
      ],
      "stateMutability": "view",
      "type": "function"
    },
    {
      "inputs": [],
      "name": "getMyVote",
      "outputs": [
        {
          "internalType": "uint256",
          "name": "",
          "type": "uint256"
        },
        {
          "internalType": "uint256",
          "name": "",
          "type": "uint256"
        },
        {
          "internalType": "uint256",
          "name": "",
          "type": "uint256"
        }
      ],
      "stateMutability": "view",
      "type": "function"
    },
    {
      "inputs": [
        {
          "internalType": "uint256",
          "name": "_electionId",
          "type": "uint256"
        },
        {
          "internalType": "uint256",
          "name": "_candidateId",
          "type": "uint256"
        }
      ],
      "name": "getVoteCount",
      "outputs": [
        {
          "internalType": "uint256",
          "name": "",
          "type": "uint256"
        }
      ],
      "stateMutability": "view",
      "type": "function"
    },
    {
      "inputs": [
        {
          "internalType": "address",
          "name": "",
          "type": "address"
        }
      ],
      "name": "voteRecords",
      "outputs": [
        {
          "internalType": "uint256",
          "name": "electionId",
          "type": "uint256"
        },
        {
          "internalType": "uint256",
          "name": "candidateId",
          "type": "uint256"
        },
        {
          "internalType": "uint256",
          "name": "timestamp",
          "type": "uint256"
        }
      ],
      "stateMutability": "view",
      "type": "function"
    },
    {
      "inputs": [],
      "name": "voterRegistry",
      "outputs": [
        {
          "internalType": "contract VoterRegistry",
          "name": "",
          "type": "address"
        }
      ],
      "stateMutability": "view",
      "type": "function"
    }
  ],
  "bytecode": "0x60806040523480156200001157600080fd5b50604051620011553803806200115583398181016040528101906200003791906200016c565b826000806101000a81548173ffffffffffffffffffffffffffffffffffffffff021916908373ffffffffffffffffffffffffffffffffffffffff16021790555081600160006101000a81548173ffffffffffffffffffffffffffffffffffffffff021916908373ffffffffffffffffffffffffffffffffffffffff16021790555080600260006101000a81548173ffffffffffffffffffffffffffffffffffffffff021916908373ffffffffffffffffffffffffffffffffffffffff160217905550505050620001c8565b600080fd5b600073ffffffffffffffffffffffffffffffffffffffff82169050919050565b6000620001348262000107565b9050919050565b620001468162000127565b81146200015257600080fd5b50565b60008151905062000166816200013b565b92915050565b60008060006060848603121562000188576200018762000102565b5b6000620001988682870162000155565b9350506020620001ab8682870162000155565b9250506040620001be8682870162000155565b9150509250925092565b610f7d80620001d86000396000f3fe608060405234801561001057600080fd5b50600436106100885760003560e01c8063be0209d21161005b578063be0209d214610105578063be60040e14610137578063db60dbed14610155578063de2e19a01461018557610088565b80632c0a3f891461008d5780637da32949146100a95780638cb647d3146100c7578063a6a41f44146100e7575b600080fd5b6100a760048036038101906100a291906107f4565b6101b5565b005b6100b1610631565b6040516100be91906108b3565b60405180910390f35b6100cf610657565b6040516100de939291906108dd565b60405180910390f35b6100ef6106e2565b6040516100fc9190610935565b60405180910390f35b61011f600480360381019061011a919061098e565b610708565b60405161012e939291906108dd565b60405180910390f35b61013f610732565b60405161014c91906109dc565b60405180910390f35b61016f600480360381019061016a91906107f4565b610756565b60405161017c91906109f7565b60405180910390f35b61019f600480360381019061019a91906107f4565b61077b565b6040516101ac91906109f7565b60405180910390f35b60008054906101000a900473ffffffffffffffffffffffffffffffffffffffff1673ffffffffffffffffffffffffffffffffffffffff166370bd8e93336040518263ffffffff1660e01b815260040161020e9190610a21565b602060405180830381865afa15801561022b573d6000803e3d6000fd5b505050506040513d601f19601f8201168201806040525081019061024f9190610a74565b61028e576040517f08c379a000000000000000000000000000000000000000000000000000000000815260040161028590610afe565b60405180910390fd5b600160009054906101000a900473ffffffffffffffffffffffffffffffffffffffff1673ffffffffffffffffffffffffffffffffffffffff1663e3f27e3d836040518263ffffffff1660e01b81526004016102e991906109f7565b602060405180830381865afa158015610306573d6000803e3d6000fd5b505050506040513d601f19601f8201168201806040525081019061032a9190610a74565b610369576040517f08c379a000000000000000000000000000000000000000000000000000000000815260040161036090610b6a565b60405180910390fd5b600080600260009054906101000a900473ffffffffffffffffffffffffffffffffffffffff1673ffffffffffffffffffffffffffffffffffffffff16634bd4644885856040518363ffffffff1660e01b81526004016103c9929190610b8a565b600060405180830381865afa1580156103e6573d6000803e3d6000fd5b505050506040513d6000823e3d601f19601f8201168201806040525081019061040f9190610d29565b9450505050915060008211610459576040517f08c379a000000000000000000000000000000000000000000000000000000000815260040161045090610e44565b60405180910390fd5b80610499576040517f08c379a000000000000000000000000000000000000000000000000000000000815260040161049090610eb0565b60405180910390fd5b60046000858152602001908152602001600020600084815260200190815260200160002060008154809291906104ce90610eff565b9190505550604051806060016040528085815260200184815260200142815250600360003373ffffffffffffffffffffffffffffffffffffffff1673ffffffffffffffffffffffffffffffffffffffff16815260200190815260200160002060008201518160000155602082015181600101556040820151816002015590505060008054906101000a900473ffffffffffffffffffffffffffffffffffffffff1673ffffffffffffffffffffffffffffffffffffffff1663a8fd0cfa336040518263ffffffff1660e01b81526004016105a79190610a21565b600060405180830381600087803b1580156105c157600080fd5b505af11580156105d5573d6000803e3d6000fd5b505050503373ffffffffffffffffffffffffffffffffffffffff167fa23fc440c6fc2e19ce408adc0b47622097fa7ea64409d71d33ba3fcdb5b4cd95858542604051610623939291906108dd565b60405180910390a250505050565b600160009054906101000a900473ffffffffffffffffffffffffffffffffffffffff1681565b600080600080600360003373ffffffffffffffffffffffffffffffffffffffff1673ffffffffffffffffffffffffffffffffffffffff1681526020019081526020016000206040518060600160405290816000820154815260200160018201548152602001600282015481525050905080600001518160200151826040015193509350935050909192565b600260009054906101000a900473ffffffffffffffffffffffffffffffffffffffff1681565b60036020528060005260406000206000915090508060000154908060010154908060020154905083565b60008054906101000a900473ffffffffffffffffffffffffffffffffffffffff1681565b6004602052816000526040600020602052806000526040600020600091509150505481565b600060046000848152602001908152602001600020600083815260200190815260200160002054905092915050565b6000604051905090565b600080fd5b600080fd5b6000819050919050565b6107d1816107be565b81146107dc57600080fd5b50565b6000813590506107ee816107c8565b92915050565b6000806040838503121561080b5761080a6107b4565b5b6000610819858286016107df565b925050602061082a858286016107df565b9150509250929050565b600073ffffffffffffffffffffffffffffffffffffffff82169050919050565b6000819050919050565b600061087961087461086f84610834565b610854565b610834565b9050919050565b600061088b8261085e565b9050919050565b600061089d82610880565b9050919050565b6108ad81610892565b82525050565b60006020820190506108c860008301846108a4565b92915050565b6108d7816107be565b82525050565b60006060820190506108f260008301866108ce565b6108ff60208301856108ce565b61090c60408301846108ce565b949350505050565b600061091f82610880565b9050919050565b61092f81610914565b82525050565b600060208201905061094a6000830184610926565b92915050565b600061095b82610834565b9050919050565b61096b81610950565b811461097657600080fd5b50565b60008135905061098881610962565b92915050565b6000602082840312156109a4576109a36107b4565b5b60006109b284828501610979565b91505092915050565b60006109c682610880565b9050919050565b6109d6816109bb565b82525050565b60006020820190506109f160008301846109cd565b92915050565b6000602082019050610a0c60008301846108ce565b92915050565b610a1b81610950565b82525050565b6000602082019050610a366000830184610a12565b92915050565b60008115159050919050565b610a5181610a3c565b8114610a5c57600080fd5b50565b600081519050610a6e81610a48565b92915050565b600060208284031215610a8a57610a896107b4565b5b6000610a9884828501610a5f565b91505092915050565b600082825260208201905092915050565b7f4e6f7420656c696769626c6520746f20766f7465000000000000000000000000600082015250565b6000610ae8601483610aa1565b9150610af382610ab2565b602082019050919050565b60006020820190508181036000830152610b1781610adb565b9050919050565b7f456c656374696f6e20636c6f7365640000000000000000000000000000000000600082015250565b6000610b54600f83610aa1565b9150610b5f82610b1e565b602082019050919050565b60006020820190508181036000830152610b8381610b47565b9050919050565b6000604082019050610b9f60008301856108ce565b610bac60208301846108ce565b9392505050565b600081519050610bc2816107c8565b92915050565b600080fd5b600080fd5b6000601f19601f8301169050919050565b7f4e487b7100000000000000000000000000000000000000000000000000000000600052604160045260246000fd5b610c1b82610bd2565b810181811067ffffffffffffffff82111715610c3a57610c39610be3565b5b80604052505050565b6000610c4d6107aa565b9050610c598282610c12565b919050565b600067ffffffffffffffff821115610c7957610c78610be3565b5b610c8282610bd2565b9050602081019050919050565b60005b83811015610cad578082015181840152602081019050610c92565b60008484015250505050565b6000610ccc610cc784610c5e565b610c43565b905082815260208101848484011115610ce857610ce7610bcd565b5b610cf3848285610c8f565b509392505050565b600082601f830112610d1057610d0f610bc8565b5b8151610d20848260208601610cb9565b91505092915050565b600080600080600060a08688031215610d4557610d446107b4565b5b6000610d5388828901610bb3565b955050602086015167ffffffffffffffff811115610d7457610d736107b9565b5b610d8088828901610cfb565b945050604086015167ffffffffffffffff811115610da157610da06107b9565b5b610dad88828901610cfb565b935050606086015167ffffffffffffffff811115610dce57610dcd6107b9565b5b610dda88828901610cfb565b9250506080610deb88828901610a5f565b9150509295509295909350565b7f43616e646964617465206e6f7420666f756e6400000000000000000000000000600082015250565b6000610e2e601383610aa1565b9150610e3982610df8565b602082019050919050565b60006020820190508181036000830152610e5d81610e21565b9050919050565b7f43616e64696461746520696e6163746976650000000000000000000000000000600082015250565b6000610e9a601283610aa1565b9150610ea582610e64565b602082019050919050565b60006020820190508181036000830152610ec981610e8d565b9050919050565b7f4e487b7100000000000000000000000000000000000000000000000000000000600052601160045260246000fd5b6000610f0a826107be565b91507fffffffffffffffffffffffffffffffffffffffffffffffffffffffffffffffff8203610f3c57610f3b610ed0565b5b60018201905091905056fea2646970667358221220cfc545ac5951b24fce3cceeca5f9d9cb2e55e2aaff04c6837f3b7dc2c22d480664736f6c63430008140033",
  "linkReferences": {},
  "deployedLinkReferences": {}
}